:020000040800F2
:1000000060080020C10100088D2200088522000838
:1000100089220008B1050008E1280008000000005E
:100020000000000000000000000000009522000811
:10003000B50500080000000091220008C127000853
:10004000DB010008DB010008DB010008DB01000820
:10005000DB010008DB010008DB010008DB01000810
:10006000DB010008DB010008DB010008DB01000800
:10007000DB010008DB010008DB010008DB010008F0
:10008000DB010008DB010008ED040008DB010008CB
:10009000DB010008DB010008DB010008DB010008D0
:1000A000DB010008DB010008DB010008DB010008C0
:1000B000DB010008DB010008DB010008DB010008B0
:1000C000DB010008DB010008DB010008DB010008A0
:1000D000DB010008D5280008DB010008DB0100086F
:1000E000DB010008DB010008DB01000800F002F87A
:1000F00000F03CF80AA090E8000C82448344AAF186
:100100000107DA4501D100F031F8AFF2090EBAE883
:100110000F0013F0010F18BFFB1A43F0010318473B
:10012000688C0000888C0000103A24BF78C878C121
:10013000FAD8520724BF30C830C144BF04680C60ED
:10014000704700000023002400250026103A28BF35
:1001500078C1FBD8520728BF30C148BF0B60704739
:100160001FB500F062F81FBD10B510BD00F084F996
:100170001146FFF7F5FF02F043FF00F0A2F903B4C8
:10018000FFF7F2FF03BC00F0ABF900000B49D1F818
:1001900000C04A685CF8043B1068184442F8040B3D
:1001A0008C4528BFA1F1DC0C8A4228BFA1F1DC02FA
:1001B000C1F800C04A6020F000407047FC000020F9
:1001C0000948804709480047FEE7FEE7FEE7FEE7EB
:1001D000FEE7FEE7FEE7FEE7FEE7FEE70448054927
:1001E000054A064B70470000C5270008ED000008CF
:1001F00060020020600800206004002060040020ED
:100200000B4910B5A1F17C020A4CC2E93712372123
:1002100006E000EB104342F82130074B00FB03409F
:100220000B1EA1F10101F4DC10BD0120E8E7000084
:100230009C000020E119D666CD0D010040EA0103C3
:1002400010B59B070FD1042A0DD310C808C9121F7F
:100250009C42F8D020BA19BA884201D9012010BDB9
:100260004FF0FF3010BD1AB1D30703D0521C07E086
:10027000002010BD10F8013B11F8014B1B1B07D1EA
:1002800010F8013B11F8014B1B1B01D1921EF1D15B
:10029000184610BD10B5431C02E010F8011B71B1E7
:1002A0008107FAD14FF0013202C88C1A8C4314EA4C
:1002B000C211F9D0C01A0A0603D0C01E10BDC01A60
:1002C00010BD0A0401D0801E10BD0902FCD0401EE2
:1002D00010BD032A40F2308010F0030C00F01580AE
:1002E00011F8013BBCF1020F624498BF11F801CB39
:1002F00000F8013B38BF11F8013BA2F1040298BF9E
:1003000000F801CB38BF00F8013B11F0030300F007
:100310002580083AC0F0088051F8043B083A51F8AB
:1003200004CBA0E80810F5E7121D5CBF51F8043BB0
:1003300040F8043BAFF30080D20724BF11F8013B23
:1003400011F801CB48BF11F8012B24BF00F8013B85
:1003500000F801CB48BF00F8012B704710B5203AD8
:10036000C0F00B80B1E81850A0E81850B1E8185060
:10037000A0E81850203ABFF4F5AF5FEA027C24BF32
:10038000B1E81850A0E8185044BF18C918C0BDE81B
:1003900010405FEA827C24BF51F8043B40F8043BE4
:1003A00008BF7047D20728BF31F8023B48BF11F899
:1003B000012B28BF20F8023B48BF00F8012B7047F3
:1003C00002F0FF0343EA032242EA024200F034B89B
:1003D00002F0FF0343EA032242EA024200F002B8BD
:1003E0004FF0000200B5134694469646203922BFCE
:1003F000A0E80C50A0E80C50B1F12001BFF4F7AF19
:10040000090728BFA0E80C5048BF0CC05DF804EBFA
:10041000890028BF40F8042B08BF704748BF20F868
:10042000022B11F0804F18BF00F8012B7047704766
:10043000704770474FF000020429C0F0128010F09E
:10044000030C3FF4CFAFCCF1040CBCF1020F18BF8A
:1004500000F8012BA8BF20F8022BA1EB0C01FFF73D
:10046000C1BF5FEAC17C24BF00F8012B00F8012B5B
:1004700048BF00F8012B7047754600F02BF8AE46D8
:1004800005006946534620F00700854618B020B5A0
:10049000FFF7A4FEBDE820404FF000064FF0000734
:1004A0004FF000084FF0000BAC46ACE8C009ACE8D8
:1004B000C009ACE8C009ACE8C00921F007018D46CD
:1004C000704710B50446AFF300802046BDE81040E9
:1004D000FFF755BE00487047040100207047000038
:1004E00001491820ABBEFEE72600020040F2801052
:1004F000C2F2000000F0C8BAB0B582B004460020D5
:10050000019021688A68D2074FD1886840F00100C5
:10051000886040F21C00C2F2000000684DF6836162
:10052000C4F21B31A0FB0101880C01900198A0B11D
:10053000019801380190019878B101980138019033
:10054000019850B1019801380190019828B10198A3
:100550000138019001980028EAD100F009FE2168D5
:100560008968C9071CD1054603E000BF8068C00741
:100570001AD100F0FDFD411B20680329F6D38168E4
:10058000C907F3D1A06A40F01000A062E06A40F011
:100590000100E062002084F82400012002B0B0BD18
:1005A000002002B0B0BD00BF002002B0B0BD00000E
:1005B000FEE70000704700002DE9F04F85B00128EC
:1005C00001460190C0F27A8140F6004540F2641481
:1005D000C4F20105C2F2000400200090FFF7D6FD2E
:1005E0000646FFF7D3FD0746FFF7D0FD06F00101F1
:1005F000049107F0010100F001004FF0FF0B00270C
:100600004FF007094FF0000803910290A9F1020191
:100610000429A8BF042104983E46002808BF4E467E
:10062000039801220028384608BF484602FA00F025
:10063000029A48EA00084AB987B160181530C1F13A
:1006400005015FFA88F2FFF7BBFE07E037B104F15E
:1006500014005FFA88F23946FFF7BAFE0120B04075
:100660002BEA000B84F81AB005F04AFD322000F0A6
:1006700051FC2846082100F06FFD2071284610210A
:1006800000F06AFD60712846202100F065FD2179A7
:10069000A071012900F010816179012900F00C811D
:1006A000012800F00981E079002840F0078132201C
:1006B00000F030FC2846082100F04EFD207128464D
:1006C000102100F049FD60712846202100F044FD12
:1006D0002179A071012900F0EF806179012900F0F2
:1006E000EB80012800F0E880E079002840F0E68007
:1006F000322000F00FFC2846082100F02DFD20716B
:100700002846102100F028FD60712846202100F0C5
:1007100023FD2179A071012900F0CE8061790129A2
:1007200000F0CA80012800F0C780E079002840F07E
:10073000C580002020836061FF204FF0000AA07672
:1007400005F0DEFCB9F1010907F101077FF45EAFA6
:10075000E079002840F0B280FFF718FD0646FFF769
:1007600015FD0746FFF712FD06F00101049107F0A1
:10077000010100F0010006274FF0150903910290D6
:1007800004993E46A9F11400002908BF06460399C2
:10079000002918BF3846012101FA00F0029928EA21
:1007A000000849B997B104EB09005FFA88F23946AD
:1007B000FFF706FE0AE000BF37B104F113005FFA4D
:1007C00088F23946FFF7FCFD84F807A00120B0400D
:1007D0004BEA000B84F81AB005F092FC322000F0CE
:1007E00099FB2846082100F0B7FC2071284610210B
:1007F00000F0B2FC60712846202100F0ADFC2179A8
:10080000A071012958D06179012955D0012853D010
:10081000E079002852D1322000F07CFB28460821E4
:1008200000F09AFC20712846102100F095FC6071C0
:100830002846202100F090FC2179A07101293BD0AD
:100840006179012938D0012836D0E079B0BB322057
:1008500000F060FB2846082100F07EFC207128464D
:10086000102100F079FC60712846202100F074FC12
:100870002179A07101291FD0617901291CD001289B
:100880001AD0E079D0B9002020836061FF204FF0BA
:10089000000AA07605F034FC013F781C09F101093B
:1008A0007FF46EAFE07948B9009901980131814237
:1008B00000917FF493AE01E00120E07105B0BDE846
:1008C000F08F00007047000010B581B00022009248
:1008D00090F82420012A03D10221084601B010BD5E
:1008E0004B680122062B80F8242017D8D0F800C0CE
:1008F00003EB83035A1F1F23DCF834E003FA02F4EE
:100900000B682EEA040403FA02F22243CCF83420E6
:10091000092B03EB430219D936E000BFD0F800C021
:100920000C2B03EB83021DD8233A1F23DCF830E0A5
:1009300003FA02F40B682EEA040403FA02F22243DB
:10094000CCF83020092B03EB43021DD8DCF8103023
:10095000072489689440A34391401943CCF81010B0
:10096000002130E0413A1F23DCF82CE003FA02F4C6
:100970000B682EEA040403FA02F22243CCF82C207E
:10098000092B03EB4302E1D9DCF80CE01E3A072403
:10099000896894402EEA0404914023F00102214327
:1009A000102ACCF80C100DD142F20841C4F201011A
:1009B000A1F1080294450DD0816A41F020018162C5
:1009C000012100E00021002280F82420084601B027
:1009D00010BD00BF0A68120230D40A68102B42F41E
:1009E00000020A602CD140F21C01C2F20001096829
:1009F0004DF68362C4F21B32A1FB0212910C01EB93
:100A00008101490000910099E1B1009901390091FB
:100A10000099C9B10099013900910099B1B10099CB
:100A200001390091009999B100990139009100991B
:100A300000294FF00001E8D1C5E700BF0021C2E75F
:100A40000021C0E70021BEE70021BCE70021BAE792
:100A50000021B8E710B540F26414C2F20004006847
:100A6000E169884218BF10BD04F11C0000F008F8CD
:100A7000014664202161BDE8104000F04BBA00003F
:100A80000068C06C7047000070B5044600680568D7
:100A90004668B10627D515F0020124D0A16AC9061F
:100AA00003D4A16A41F40071A162816801F460215C
:100AB000B1F5602F10D1217B71B9416821F020017F
:100AC0004160A06A20F48070A062A06AC00403D4D0
:100AD000A06A40F00100A0622046FFF7BBFF20683B
:100AE0006FF012010160310633D515F0040130D0EA
:100AF000A16AC90603D4A16A41F40051A1628168C8
:100B000001F4E041B1F5E04F10D1416821F08001DE
:100B10004160A06A20F48050A062A06AC00511D490
:100B2000A06A40F00100A0620CE000BF41684905E6
:100B300008D4816801F46021B1F5602F02D1217BD6
:100B40000029E2D02046FFF7BDFE20686FF00C01BF
:100B5000016070060ED515F0010008BF70BDA06AD7
:100B600040F48030A062204600F0B4F820686FF0B6
:100B70000101016070BD0000B0B5002800F0A88040
:100B80000446806A20B121688868C0070BD114E050
:100B90000020E06284F82400204600F09DF82168DF
:100BA0008868C00709D0886820F00100886000F0DC
:100BB000DFFA21688A68D20726D1A06AC0063AD433
:100BC000A06A41F2021290430230A062E069D4E9C7
:100BD000013240EA030C531EB3FA83F35D09134656
:100BE000B2F5807F18BF2B02207D257B01284CEABF
:100BF000450030D135B3A56A45F02005A562E56A08
:100C000045F00105E56226E0054602E08868C00778
:100C1000D3D000F0ADFA401B21680328F6D38868D2
:100C2000C007F3D0A06A40F01000A062E06A40F074
:100C30000100E062A06AA06A40F01000A0620120FA
:100C4000B0BD00BFD4F818C04EF60005CFF6FF7552
:100C500005EB4C352B434D68B2F5807F25F4694593
:100C600043EA05034B608B684FF2FD75CFF6E175E3
:100C700003EA050343EA00038B6001D0012A07D190
:100C800022690023CFF6F07303EB025201E000BFAC
:100C90000022CB6A23F470031A43CA62896840F6C3
:100CA000FE62CFF61F721140814207D10020E06240
:100CB000A16A012262F30101A162B0BDA06A40F005
:100CC000100020F00200A062E06A40F00100E06243
:100CD0000120B0BD7047000080B586B0014640F6E7
:100CE0000000C4F20100096800F5E05291424FF0A3
:100CF0000001CDE9041101D006B080BD41F2180118
:100D0000C4F202010A6842F400720A600A6802F43E
:100D100000720192019A0A6842F004020A600968AE
:100D200001F0040101910199022102910321039133
:100D300002A900F003F912200021002200F09AFA23
:100D4000122000F083FA06B080BD000010B5044602
:100D500090F82400012804BF022010BD012084F86F
:100D600024002046FFF7C8FB20B1002184F824109E
:100D700010BD00BF42F2044C2068A16AC4F2010C0D
:100D800040F2013291430CF57F7201F5807190427F
:100D9000A16233D0A16A21F48011A16241684905A2
:100DA00004D5A16A012363F30D31A162A16A002376
:100DB000C9044FF0000144BFE16A21F00601E1627D
:100DC0006FF0020184F824300160816801F4602131
:100DD000B1F5602F06D190420AD1DCF8001011F471
:100DE000702F05D0816841F480118160002010BD12
:100DF000816841F4A0018160002010BDDCF8001082
:100E000011F4702FC6D0A16A41F48011A162DCF800
:100E100000104905C5D4C9E7014690F82100022811
:100E200016D10868D1E90FC3026822F00E020260F1
:100E3000026822F001020260012000FA03F2CCF8FD
:100E4000042081F821000020002281F82020704732
:100E5000042088630120002281F8202070470000D0
:100E600080B590F82110022924D10268116821F080
:100E70000E0111602F211368C4F202018A4240F270
:100E80000401C4F2020123F00103136016DD3023D4
:100E9000C4F202039A421DD04423C4F202039A42D0
:100EA0001CD05823C4F202039A421DD14FF4803360
:100EB00022E000BF04218163012080BD0823C4F229
:100EC00002039A420ED01C23C4F202039A420BD1B1
:100ED000102311E04FF480730EE000BF4FF48053F5
:100EE0000AE000BF012307E001F1680C4FF08073B6
:100EF000624508BF4FF480130B60012180F8211078
:100F0000426B002180F820100AB19047002108466A
:100F100080BD0000B0B5044600F02AF9054640F255
:100F20001400C2F200000078611C18BF044400BF26
:100F300000F01EF9401BA042FAD3B0BD2DE9F04FDE
:100F400082B00E68002E00F0038141F20042C4F22C
:100F50000102042340F2004E904208BF03234FF6E3
:100F6000FF7CC4F2010E009300240123C1F2100C97
:100F70004FF0000A4FF0000949E000BF012704F0DC
:100F80000C030F229A402BEA020207FA03F34FEAFE
:100F90009A051A4346F82520D1F804B040F20C45D2
:100FA0005FEACB22DEF8082054BF22EA080242EAB8
:100FB0000802C4F20105CEF808202A685FEA8B23F4
:100FC00054BF22EA080242EA08022A605FEA8B3331
:100FD000DEF8042054BF22EA080242EA08025FEA6F
:100FE000CB33CEF80420DEF800204FF0010354BFCD
:100FF00022EA080242EA0802CEF800200E680AF14E
:10100000010A36FA0AF204F1040400F0A18003FA9E
:101010000AF816EA080FF1D04E68664512DC122E67
:1010200056D8DFE806F0350B454955555555555509
:10103000555555555555554D510000BFD1F80C909B
:1010400046E000BF4FF6FF72C1F2210296420FDC6C
:101050000022C1F2110296421AD00022C1F21202FD
:10106000964215D00022C1F22102964210D02FE004
:101070000022C1F2220296420AD00022C1F23102BD
:10108000964205D00022C1F23202964220D100BF22
:101090008A684AB1012A14BFC0F81480C0F81080D1
:1010A0004FF0080914E000BF4FF0040910E000BF42
:1010B000CA6802F108090BE04FF0000908E000BF20
:1010C000CA6802F1040903E0CA6802F10C0900BF12
:1010D00022460646BAF1080F24BF203A0436376884
:1010E0000F25954027EA050509FA02F22A433260E6
:1010F000CA79D2067FF582AF41F21803C4F2020327
:101100001A68AEF57E7642F001021A601A6802F0A3
:1011100001020192019A2AF0030256F802B040F649
:101120000002C4F20102904210D040F60042C4F224
:10113000010290423FF422AF41F20002C4F20102E8
:10114000009F904208BF022719E700BF002716E75B
:1011500002B0BDE8F08F00008068084018BF012091
:1011600070470000002A08BF0904016170470000B1
:1011700040F25C20C2F200000068704740F21400A8
:1011800040F25C21C2F20000C2F2000100780A685D
:10119000104408607047000080B542F20000C4F2BD
:1011A0000200016841F010010160032000F08EF898
:1011B0000F2000F005F800F027F8002080BD0000A7
:1011C00070B540F21406C2F2000640F21C013278FB
:1011D000C2F200014FF47A730968B3FBF2F20446DD
:1011E000B1FBF2F1084600F0E9FB0F2C4FF00105CE
:1011F00008D838B94FF0FF3021460022002500F012
:1012000039F87460284670BD82B041F21800C4F20B
:1012100002000168022241F001010160016801F051
:10122000010101910199416841F08051416040689C
:1012300000F08050009000980420C4F20100016882
:1012400062F31A61016002B070470000002848BFD5
:101250007047C1B200F01F00012202FA00F04EF206
:101260000012CEF2000242EAD10121F0030108602F
:101270007047000010B54EF60C5CCEF2000CDCF8A6
:101280000030C3F3022E8EF00704042C28BF042480
:10129000BEF103034FF0FF3E0EFA04F438BF002303
:1012A000A14399400EFA03F39A43114300F00F0251
:1012B00000F160430901043A03F5644362440028E5
:1012C00048BF02F10C03197010BD00004EF60C511E
:1012D000CEF200010A684FF6FF031A4060F30A22BB
:1012E00042F0806040F0FD70086070472DE9F041E9
:1012F00082B00446007841F21C06C007C4F2020620
:101300004AD0306810F0805808D1306840F08050E2
:101310003060306800F080500190019847F200077B
:10132000C4F200073868C00512D4386840F48070F1
:101330003860FFF71DFF05463868C00508D4FFF781
:1013400017FF401B6428F7D9032002B0BDE8F081E5
:10135000706810F4407012D0616801F440718842E6
:101360000DD0706840F24042C4F24222012320F4C2
:10137000407113600023C007136071602AD1706848
:10138000616820F440700843B8F1000F706003D129
:10139000306820F0805030602068810707D556F80B
:1013A000181CA26821F44041114346F8181CC006DD
:1013B00004D4002002B0BDE8F08100BF56F8180C3C
:1013C000E16820F48000084346F8180C002002B0C1
:1013D000BDE8F081FFF7CCFE054641F2883700BF3B
:1013E00070688007CBD4FFF7C3FE401BB8424FF0B4
:1013F0000300F5D9EBE700002DE9F04381B00028A8
:1014000000F0858042F20008C4F202080446D8F8D1
:1014100000000D4600F0070088420CD2D8F800000A
:1014200020F007002843C8F80000D8F8000000F0BA
:101430000700A8426BD1206841F204098107C4F279
:10144000020917D5410705D5D9F8001041F4E0612C
:10145000C9F80010010705D5D9F8001041F4605112
:10146000C9F80010D9F80010A26821F0F00111436A
:10147000C9F80010C00741D1D8F8000000F00700FB
:10148000A8420CD9D8F8000020F007002843C8F87B
:101490000000D8F8000000F00700A84237D120680B
:1014A000410707D5D9F80010E26821F4E061114343
:1014B000C9F80010000708D5D9F80000216920F408
:1014C000605040EAC100C9F80000D9F8002002F0DD
:1014D0000C00082841F20020C0F27A0050D148F6F2
:1014E0006653C2F38341C0F60003595CD2033BD478
:1014F00040F60010C0F23D00484341E06068022819
:101500000AD001282AD159F8041C890308D40120E3
:1015100001B0BDE8F08300BF59F8041C8901F6D57D
:10152000D9F8001021F003010843C9F80000FFF7C3
:101530001FFE064641F28837D9F80000616800F0C6
:101540000C00B0EB810F97D0FFF712FE801BB84262
:10155000F2D9032001B0BDE8F08300BF59F8041CA4
:101560008907D4D5DCE700BFD9F8002048F66453DA
:10157000C2F34042C0F600039A5C4843B0FBF2F06D
:10158000D9F8001048F64C52C1F30311C0F600021E
:10159000515C40F21C0220FA01F140F21800C2F244
:1015A00000000068C2F200021160FFF709FE00208F
:1015B00001B0BDE8F083000040F21C0041F20401DC
:1015C000C2F20000C4F202010068096848F65C52E9
:1015D000C1F30221C0F60002515CC8407047000010
:1015E00040F21C0041F20401C2F20000C4F2020108
:1015F0000068096848F65C52C1F3C221C0F60002D7
:10160000515CC840704700002DE9F04182B00028CD
:1016100068D00446007841F20006C007C4F2020612
:1016200025D0706800F00C0004281BD0706800F012
:101630000C00082802D17068C00313D46068002829
:1016400000F06881B0F5A02F00F07C81B0F5803FFC
:1016500000F07C81306820F480303060306820F405
:10166000802076E13068800301D56068D0B32078AF
:10167000800718D5706810F00C0F07D0706800F064
:101680000C0008286ED17068C0036BD430688007E6
:1016900002D52069012825D13068616920F0F80061
:1016A00040EAC1003060207800071FD4207840074E
:1016B00032D4E56995B1706800F00C00082840F05C
:1016C0008F80012D0ED07068216A00F480328A422A
:1016D00008D1616A00F47010884203D1002002B082
:1016E000BDE8F081012002B0BDE8F081A0690028CA
:1016F00062D00020C4F242200121C0F88014FFF71C
:1017000037FD0546706A800700F18C80FFF730FDD9
:10171000401B0228F6D92AE1F06910F0805808D160
:10172000F06940F08050F061F06900F08050009066
:10173000009847F20007C4F200073868C00529D4B2
:10174000386840F480703860FFF712FD054600BF2E
:101750003868C0051ED4FFF70BFD401B6428F7D97D
:1017600005E100BF2069002840F20000C4F24220D9
:1017700000F0828001210160FFF7FAFC054600BFFE
:10178000306880073FF588AFFFF7F2FC401B022866
:10179000F6D9ECE0E068002800F08080052800F031
:1017A0009780012800F09880306A20F001003062B4
:1017B000306A20F0040092E00020C4F242200021B0
:1017C000C0F88014FFF7D4FC054600BF706A80079C
:1017D0007FF56CAFFFF7CCFC401B0228F6D9C6E0C2
:1017E0000027C4F2422700203866FFF7C1FC022D13
:1017F00005460BD13068800140F1BE80FFF7B8FC90
:10180000401B02284FF00300F4D968E730688001DC
:101810007FF564AFFFF7ACFC401B02284FF00300DC
:10182000F4D95CE740F21C00C2F20000006844F604
:10183000D351C1F26201A0FB0101480A019000BF2F
:1018400000BF0198411E002801913FF42FAF00BF57
:101850000198411E002801913FF428AF00BF019874
:10186000411E002801913FF421AF00BF0198411EA5
:1018700000280191E4D119E700210160FFF778FC0D
:10188000054600BF306880077FF50DAFFFF770FC9D
:10189000401B02284FF00300F4D920E7306A20F003
:1018A00001003062306A20F004003062FFF760FC13
:1018B000054641F2883700BF306A800720D5FFF720
:1018C00057FC401BB8424FF00300F5D907E700BFB3
:1018D000306A40F004003062306A40F0010030624B
:1018E000FFF746FC054641F2883700BF306A8007A3
:1018F00006D4FFF73DFC401BB842F7D937E000BFE4
:10190000B8F1000F7FF4D5AEF06920F08050F0619F
:10191000CFE600BF306820F480303060306820F4BB
:1019200080203060FFF724FC054600BF306880034C
:101930007FF59DAEFFF71CFC401B64284FF00300B1
:10194000F4D9CCE6306840F480203060306840F450
:1019500080303060FFF70CFC054600BF3068800324
:101960003FF585AEFFF704FC401B6428F6D9032041
:1019700002B0BDE8F08100BF206AB0F5803F05D11C
:101980007168A26821F40031114371607168626A64
:1019900021F4741111430843706001203866FFF789
:1019A000E7FB0446306880013FF598AEFFF7E0FBA7
:1019B000001B02284FF00300F4D990E6411E0020DE
:1019C000B0EB116F1CBF012070474EF21002CEF237
:1019D000000251604EF62351CEF20001F0230B704D
:1019E0000721906011607047704700007047000049
:1019F000704700007047000070470000B0B582B02B
:101A0000044600680168C368426901F02F05202D73
:101A100003F0200506D12DB1204602B0BDE8B0404C
:101A200000F0D8BE5FEA017C1EBF02F0010E03F495
:101A3000907212EB0E024FD1226B012A05D111F0E8
:101A4000100218BF13F0100232D10A0622D513F08B
:101A500080021FD094F8411021293BD1A168B1F533
:101A6000805F03D12169002900F06882216A4A1C45
:101A7000226209784160E18C01390A04E18429D1AC
:101A8000C16821F08001C160C16841F04001C160BE
:101A900002B0B0BD49061DD513F040011AD0C1688F
:101AA00021F04001C160202084F84100E16CC2E1D6
:101AB00000210191016801914168019101994069FA
:101AC000400613D4A08DE18DE28D002A18BF884214
:101AD00040F0B68102B0B0BDCA0718BF13F48072DF
:101AE00040F0B6804A0700F1B980BEE0E06B0168C3
:101AF00049688AB2002AEDD0A38D9A42EAD2E185E4
:101B00008069202800F09C80206850E8030F21683D
:101B100020F4807041E80302DAB1206850E8030F36
:101B2000216820F4807041E8030292B1206850E8F7
:101B3000030F216820F4807041E803024AB1206855
:101B400050E8030F216820F4807041E80302002A66
:101B5000DAD1206850E8050F216820F0010041E843
:101B60000502DAB1206850E8050F216820F0010075
:101B700041E8050292B1206850E8050F216820F085
:101B8000010041E805024AB1206850E8050F2168CC
:101B900020F0010041E80502002ADAD1206850E86F
:101BA000050F216820F0400041E80502DAB1206805
:101BB00050E8050F216820F0400041E8050292B18D
:101BC000206850E8050F216820F0400041E8050238
:101BD0004AB1206850E8050F216820F0400041E834
:101BE0000502002ADAD1202084F842000020206378
:101BF000206850E8030F216820F0100041E803023C
:101C0000DAB1206850E8030F216820F0100041E8A5
:101C1000030292B1206850E8030F216820F0100001
:101C200041E803024AB1206850E8030F216820F020
:101C3000100041E80302002ADAD1E06BFFF7ECF86C
:101C400002206063E26EA08DE18D401A70E100BF5A
:101C5000626C42F0010262644A0706D5BEF1000FD1
:101C600003D0626C42F0020262648A0706D5BEF1BC
:101C7000000F03D0626C42F004026264BCF1000FFA
:101C800009D545EA0E02B2FA82F2520903D1626C1A
:101C900042F008026264626C002A3FF41BAF11F04C
:101CA000200118BF002D03D0204600F093FD2068CE
:101CB0004069616C00F0400001F00801401800F03C
:101CC000B18000BF206850E8030F216820F49070B5
:101CD00041E80302BAB3206850E8030F216820F4FA
:101CE000907041E8030272B3206850E8030F216846
:101CF00020F4907041E803022AB3206850E8030FF3
:101D0000216820F4907041E80302002ADAD11AE039
:101D1000206850E8050F216820F0010041E8050225
:101D2000DAB1206850E8050F216820F0010041E891
:101D3000050292B1206850E8050F216820F00100EB
:101D400041E805024AB1206850E8050F216820F0FB
:101D5000010041E80502002ADAD1206B012824D1D4
:101D6000206850E8030F216820F0100041E80302CA
:101D7000DAB1206850E8030F216820F0100041E834
:101D8000030292B1206850E8030F216820F0100090
:101D900041E803024AB1206850E8030F216820F0AF
:101DA000100041E80302002ADAD1202084F8420022
:101DB000002020632068406940063BD5206850E839
:101DC000050F216820F0400041E80502DAB12068E3
:101DD00050E8050F216820F0400041E8050292B16B
:101DE000206850E8050F216820F0400041E8050216
:101DF0004AB1206850E8050F216820F0400041E812
:101E00000502002ADAD1E06BA0B142F2C971C0F636
:101E100000014163FFF724F800283FF45BAEE06B5C
:101E2000416B09E0A16D204688470020606402B044
:101E3000B0BD00BFA16D204602B0BDE8B04008476C
:101E4000401A216851E8031F226821F4907142E88A
:101E50000313DBB1216851E8031F226821F490715C
:101E600042E8031393B1216851E8031F226821F46B
:101E7000907142E803134BB1216851E8031F2268B7
:101E800021F4907142E80313002BDAD1216851E864
:101E9000051F226821F0010142E80513DBB121682A
:101EA00051E8051F226821F0010142E8051393B1B2
:101EB000216851E8051F226821F0010142E805135D
:101EC0004BB1216851E8051F226821F0010142E869
:101ED0000513002BDAD1202184F842100021216360
:101EE000216851E8031F226821F0100142E8031322
:101EF000DBB1216851E8031F226821F0100142E89C
:101F0000031393B1216851E8031F226821F01001E7
:101F100042E803134BB1216851E8031F226821F006
:101F2000100142E80313002BDAD102216163E26E53
:101F300081B2204602B0BDE8B0401047216A31F8B6
:101F4000022B6FF35F224260216294E5002804BFF8
:101F50000120704770B5044690F84100D0BB0020C6
:101F600042F27D2184F8400042F28120C0F6000157
:101F7000C0F60000E164216F42F2792242F2791347
:101F800041F6F91C41F6ED1E41F6F51541F6F11644
:101F9000A06441F6E910C0F60002C0F60003C0F6E6
:101FA000000CC0F6000EC0F60005C0F60006C0F634
:101FB000000022656365C4F858C0C4F85CE0C4E959
:101FC0001856E06621B942F29901C0F60001216776
:101FD00020468847242084F841002068D4E9021272
:101FE000C36823F40053C360036923F440531A43C6
:101FF0000261D4E904231143C268194341F20C631E
:102000009A431143C1604169A26921F440711143AF
:1020100043F60002C4F201029042416102D0FFF790
:10202000CBFA01E0FFF7DCFA62681921484391001E
:10203000B0FBF1F048F21F51C5F2EB11A0FB0123F8
:102040005A094FF69C73C0F6FF7302FB030032235C
:1020500003EB0010A0FB0101F02303EA51132068F9
:1020600003EB0212C1F3431111448160016921F4B1
:1020700090410161416921F02A014161C16841F447
:102080000051C16000202021606484F8411084F870
:102090004210606370BD000070B586B040F6000469
:1020A000C4F20104006804F54051002688420496F9
:1020B00002D006B070BD00BF41F21800C4F20200A9
:1020C000016802AD41F480410160016801F4804182
:1020D00001910199016841F00401016000682946FD
:1020E00000F00400019001984FF40070029002206B
:1020F0000390032005902046FEF720FF4FF48060F8
:10210000CDE90206204629460496FEF717FF252052
:1021100000210022FFF7AEF82520FFF797F806B060
:1021200070BD000090F84230202B1CBF0220704789
:1021300000294FF0010318BF002A01D1184670474B
:1021400000230363816222218285C285436480F873
:1021500042100169006819B1C16841F48071C16021
:102160004169002341F001014161C16841F0200152
:10217000C16018467047000070B5006843F6000162
:10218000C4F20101884218BF70BD40F26415C2F26A
:1021900000056B7AE868402B26D140F20006C2F2B7
:1021A000000672782844002105F14C0480F84C1098
:1021B000E9604AB32DA120460522FEF73FF800282A
:1021C0003ED02CA120460322FEF738F8E0B348F6B3
:1021D0008551C0F6000120460322FEF72FF8B0B368
:1021E0000120E87170BD00BF411C2E1840F2E410C0
:1021F000E96005F10901C2F20000012286F84C30C5
:10220000BDE87040FFF78EBF48F67E51C0F6000172
:1022100020460722FEF712F840B148F68551C0F675
:10222000000120460322FEF709F880B9204632213A
:10223000FEF7D6F840F20110A5F8070070BD00BF08
:102240007068323802E000BF70683230706020463B
:102250003221FEF7C5F840F2E41005F10901C2F29F
:1022600000000122BDE87040FFF75CBF646F776E2D
:10227000000000007570000070470000704700000B
:1022800070470000FEE70000FEE70000FEE70000E8
:10229000704700007047000070B59AB00446FDF723
:1022A000F9FF38B1012800F0010C07D1002000220D
:1022B000A3E100BF002000F06FBA00BF20F00103CF
:1022C00000200022A65C203E5A2E00F2C680002587
:1022D000DFE816F05C005E00C300C300C300C3006B
:1022E000C300C30060006200C300640066006800B1
:1022F0006A006C006E007000720074007600780056
:102300007A007C007E0080008200840086008800C5
:102310008A008C00C300C300C300C300C300C30015
:10232000C300C300C300C300C300C300C300C30095
:10233000C300C300C300C300C300C300C300C30085
:10234000C300C300C300C300C300C300C300C30075
:10235000C300C300C300C0008E0090009200940030
:10236000960098009A009C009E00A000A200A40085
:10237000A600A800AA00AC00AE00B000B200B400F5
:10238000B600BE00B800BA00BC0000BF1A2561E06C
:1023900025255FE02F255DE02E255BE02B2559E00C
:1023A000272557E02C2555E0322553E0292551E01B
:1023B0001B254FE01C254DE01D254BE01E2549E067
:1023C0001F2547E0202545E0212543E0222541E067
:1023D00023253FE024253DE026253BE02A2539E062
:1023E000302537E02D2535E0312533E0282531E053
:1023F00001252FE002252DE003252BE0042529E00F
:10240000052527E0062525E0072523E0082521E00E
:1024100009251FE00A251DE00B251BE00C2519E00E
:102420000D2517E00E2515E00F2513E0102511E00E
:1024300011250FE012250DE013250BE0142509E00E
:10244000152507E0172505E0182503E0192501E00B
:10245000162500BF01A90D540130A1184978A1F13A
:1024600020065A2E00F2C5800025DFE816F05B003A
:102470005D00C200C200C200C200C200C2005F0014
:102480006100C20063006500670069006B006D00B9
:102490006F00710073007500770079007B007D008C
:1024A0007F00810083008500870089008B00C200C7
:1024B000C200C200C200C200C200C200C200C2000C
:1024C000C200C200C200C200C200C200C200C200FC
:1024D000C200C200C200C200C200C200C200C200EC
:1024E000C200C200C200C200C200C200C200C200DC
:1024F000BF008D008F009100930095009700990018
:102500009B009D009F00A100A300A500A700A900BB
:10251000AB00AD00AF00B100B300B500BD00B70027
:10252000B900BB001A2561E025255FE02F255DE09D
:102530002E255BE02B2559E0272557E02C2555E07B
:10254000322553E0292551E01B254FE01C254DE0A5
:102550001D254BE01E2549E01F2547E0202545E0CD
:10256000212543E0222541E023253FE024253DE0CD
:1025700026253BE02A2539E0302537E02D2535E0BA
:10258000312533E0282531E001252FE002252DE01B
:1025900003252BE0042529E0052527E0062525E075
:1025A000072523E0082521E009251FE00A251DE075
:1025B0000B251BE00C2519E00D2517E00E2515E075
:1025C0000F2513E0102511E011250FE012250DE075
:1025D00013250BE0142509E0152507E0172505E074
:1025E000182503E0192501E0162500BF01A90D54A7
:1025F0000130023293427FF465AEBCF1000F00F06F
:10260000CB80A15CA1F120025A2A00F2C5800021F2
:10261000DFE812F05C005E00C200C200C200C2002F
:10262000C200C20060006200C20064006600680070
:102630006A006C006E007000720074007600780012
:102640007A007C007E008000820084008600880082
:102650008A008C00C200C200C200C200C200C200D8
:10266000C200C200C200C200C200C200C200C2005A
:10267000C200C200C200C200C200C200C200C2004A
:10268000C200C200C200C200C200C200C200C2003A
:10269000C200C200C200BF008E00900092009400F1
:1026A000960098009A009C009E00A000A200A40042
:1026B000A600A800AA00AC00AE00B000B200B400B2
:1026C000B600B800BA00BC00BE0000BF1A2160E02E
:1026D00025215EE02F215CE02E215AE02B2158E0DD
:1026E000272156E02C2154E0322152E0292150E0EC
:1026F0001B214EE01C214CE01D214AE01E2148E038
:102700001F2146E0202144E0212142E0222140E037
:1027100023213EE024213CE026213AE02A2138E032
:10272000302136E02D2134E0312132E0282130E023
:1027300001212EE002212CE003212AE0042128E0DF
:10274000052126E0062124E0072122E0082120E0DF
:1027500009211EE00A211CE00B211AE00C2118E0DF
:102760000D2116E00E2114E00F2112E0102110E0DF
:1027700011210EE012210CE013210AE0142108E0DF
:10278000152106E0162104E0172102E0182100E0DF
:10279000192101AA1154013040F2641601AC41F62E
:1027A0001A21851CC2F20006215200BF204629468C
:1027B00000F028F9F0790028F8D01AB070BD0000B8
:1027C000FEF7DCBC70470000406A0021C185C1846F
:1027D000816D084781B090F84210222921D1836889
:1027E0000246B3F5805F09D152F8281F52F8183C11
:1027F000002B63D003685B680AE000BF52F8281F13
:1028000013B90369002BF5D003685B6803F07F03FD
:102810000B70116801311160C18D01390A04C18545
:1028200002D001B0704700BF0168CA6822F02002E0
:10283000CA60CA6822F48072CA604A6922F0010242
:102840004A61202180F8421000214163026B012A75
:102850003CD10163016851E8031F026821F01001B7
:1028600042E80313DBB1016851E8031F026821F05D
:10287000100142E8031393B1016851E8031F026895
:1028800021F0100142E803134BB1016851E8031F26
:10289000026821F0100142E80313002BDAD101682D
:1028A0000A68D20606D5002200920A68009249689A
:1028B00000910099C26E818D01B010470268526884
:1028C0006FF35F2221F8022B8162A5E7416D01B011
:1028D0000847000040F2E410C2F20000FFF78EB893
:1028E000FEE700004EF60C50BFF34F8FCEF2000013
:1028F0000168042201F4E061C0F2FA521143016060
:10290000BFF34F8F00BF00BF00BF00BFFAE700005A
:1029100070B540F26415C2F200054FF0FF3005F1CA
:102920001C04288368612046FEF710FA2046FEF753
:10293000A7F840F20004C2F20004616828618842EE
:1029400008D2002028836861FF20A876BDE8704087
:1029500003F0D6BBA07BFF262E75A87603F0D0FB34
:102960003220FEF7D7FAE07B6E75A87603F0C8FB3D
:102970003220FEF7CFFA207CAE75A87603F0C0FBBC
:102980003220FEF7C7FA607CEE75A87603F0B8FB3C
:102990003220FEF7BFFAA07C2E76A87603F0B0FBBB
:1029A0003220FEF7B7FAE07C6E76A87603F0A8FB3B
:1029B0003220BDE87040FEF7ADBA0000B0B540F679
:1029C0000044C4F2010420460821FEF7C5FB40F292
:1029D0006415C2F20005287120461021FEF7BCFBE9
:1029E000687120462021FEF7B7FB2979A8710129DB
:1029F00005D06979012902D0012818BFB0BD012096
:102A0000E871B0BD2DE9F04F87B001290A46019168
:102A1000C0F2EC8040F2641640F20008C2F20006F8
:102A200048F68A350746C2F2000806F11409C0F6D6
:102A30000005002200240BE00120F0710298039AA7
:102A4000C00740F0D38001980132824280F2CE80EC
:102A500003920020012200BF0490C0F10500DDF8C0
:102A60000CA0059008200292069098F80E00DDF860
:102A700014B0B07617F80A0000EB400005EB4000F8
:102A8000407909F80B0003F03BFB0120FEF742FA06
:102A9000FF2034837461B07603F032FB98F80F00A6
:102AA000B07617F80A0000EB400005EB4000007913
:102AB00009F80B0003F024FB0120FEF72BFAFF209E
:102AC00034837461B07603F01BFB98F81000B07685
:102AD00017F80A0000EB400005EB4000C07809F849
:102AE0000B0003F00DFB0120FEF714FAFF203483E6
:102AF0007461B07603F004FB98F81100B07617F813
:102B00000A0000EB400005EB4000807809F80B005C
:102B100003F0F6FA0120FEF7FDF9FF20348374611B
:102B2000B07603F0EDFA98F81200B07617F80A00C4
:102B300000EB400005EB4000407809F80B0003F083
:102B4000DFFA0120FEF7E6F9FF2034837461B076E6
:102B500003F0D6FA98F81300B07617F80A0000EBE5
:102B6000400015F8100009F80B0003F0C9FA012025
:102B7000FEF7D0F9FF2034837461B07603F0C0FA19
:102B8000069801387FF470AF40F6004AC4F2010A9B
:102B900050460821FEF7E0FA307150461021FEF74A
:102BA000DBFA707150462021FEF7D6FA3179B07108
:102BB00001293FF441AF717901293FF43DAF01286C
:102BC0003FF43AAFF07900287FF438AF0498002240
:102BD000052800F1010038BF012206287FF43CAF30
:102BE000039A019801328242FFF632AF07B0BDE886
:102BF000F08F00002DE9F04381B001284EDB40F654
:102C0000004540F264160446C4F20105C2F2000613
:102C100081274FF000084FF0FF0900BFB776FDF79E
:102C2000B5FA3075B776FDF7B1FA7075B776FDF77E
:102C3000ADFAB075B776FDF7A9FAF075B776FDF77E
:102C4000A5FA3076B776FDF7A1FA707603F058FA58
:102C50005020FEF75FF928460821FEF77DFA307113
:102C600028461021FEF778FA707128462021FEF7D9
:102C700073FA3179B071012914D07179012911D019
:102C800001280FD0F07948B9A6F81880C6F814804A
:102C900086F81A9003F034FA013CBFD101B0BDE8C8
:102CA000F08300BF0120F07101B0BDE8F0830000A7
:102CB0002DE9F04381B040F6004440F2641700264D
:102CC000C4F20104C2F200074FF0670841F6180988
:102CD00087F81A80A7F8169003F012FA0020FEF782
:102CE00019F9FEF745FA0546FEF742FA401B03289C
:102CF000FAD320460821FEF72FFA3871204610211A
:102D0000FEF72AFA787120462021FEF725FA397954
:102D1000B871012932D0797901292FD001282DD01D
:102D2000F87938BB20460821FEF716FA387120469C
:102D30001021FEF711FA787120462021FEF70CFAD7
:102D40003979B871012919D07979012916D001286A
:102D500014D0F87970B90020FEF7DCF8FEF708FA15
:102D6000054600BFFEF704FA401B0328FAD30136DC
:102D7000C82EADD101B0BDE8F08300BF0120F871CD
:102D800001B0BDE8F08300002DE9F04F81B040F6BE
:102D9000004440F2641742F23C490026C4F20104A8
:102DA000C2F20007C3F624494FF0FF0A4FF0240B8C
:102DB0004FF00008DB20B876C7F8159003F0A0F9B3
:102DC0000020FEF7A7F8FEF7D3F90546FEF7D0F985
:102DD000401B0328FAD33E837E6187F81AA003F0D4
:102DE0008FF9F879B0BBE720B87687F818B087F884
:102DF00015B003F085F93E837E6187F81AA003F0D1
:102E00007FF920460821FEF7A7F9387120461021E6
:102E1000FEF7A2F9787120462021FEF79DF9397955
:102E2000B87101291AD07979012917D0012815D054
:102E3000F87978B90020FEF76DF8FEF799F90546A4
:102E4000FEF796F9401B0328FAD308F10108B8F100
:102E5000C80FAFD101B0BDE8F08F00BF0120F871FD
:102E600001B0BDE8F08F00002DE9F04F81B040F6D1
:102E7000004440F2641740F200090026C4F2010445
:102E8000C2F20007C2F200094FF0423A4FF0FF0BC6
:102E90004FF0000899F80000BD21B97678763875B2
:102EA000C7F815A003F02CF90020FEF733F8FEF761
:102EB0005FF90546FEF75CF9401B0328FAD33E8311
:102EC0007E6187F81AB003F01BF920460821FEF74F
:102ED00043F9387120461021FEF73EF978712046FB
:102EE0002021FEF739F93979B871012940D0797973
:102EF00001293DD001283BD0F879B0BB4CF24230DB
:102F0000A7F819004220387503F0FAF80020FEF700
:102F100001F8FEF72DF90546FEF72AF9401B0328B4
:102F2000FAD33E837E6187F81AB003F0E9F82046B1
:102F30000821FEF711F9387120461021FEF70CF92F
:102F4000787120462021FEF707F93979B8710129F7
:102F50000ED0797901290BD0012809D0F87920B950
:102F600008F10108B8F1C80F94D101B0BDE8F08FA5
:102F70000120F87101B0BDE8F08F000070B540F29B
:102F800064150446C2F200054FF0FF3028836861E3
:102F90000020A87603F0B4F8322C2FDB48F21F5043
:102FA000C5F2EB1084FB0001081140F6004400EB71
:102FB000D176C4F2010408E0E879002818BF70BD9A
:102FC0003220FDF7A7FF013E18D020460821FEF76A
:102FD000C3F8287120461021FEF7BEF8687120461C
:102FE0002021FEF7B9F82979A871012904D069795F
:102FF000012901D00128DFD10120E87170BD000056
:1030000094B0FEF7C9F80AAC201D2421FDF7E8F9B9
:1030100002200A9001200E90102000250F902046DB
:103020000495CDE902551195FEF7EEFA20B1EFF3C4
:10303000108072B6FEE700BF0F20CDE9050505A898
:103040000021CDE907550995FEF7D6F920B1EFF338
:10305000108072B6FEE700BF4FF00209002701A8FA
:10306000CDF804900397FEF741F928B1EFF31080F3
:1030700072B600BFFEE700BF41F21800C4F20200C2
:10308000016840F6004841F0200101600168C4F287
:10309000010801F020010A910A990168A8F58065EC
:1030A00041F0040101600168002201F004010A916D
:1030B0000A990168E02441F0080101600068E021FC
:1030C00000F008000A900A982846FEF74BF84046A0
:1030D0004FF4607100224FF4607AFEF743F80A94CF
:1030E00001240BA80AAE80E8900228463146FDF77D
:1030F00025FF3820CDE90A07404631460C97FDF7F9
:103100001DFF40463146CDE90AA4CDE90C79FDF713
:1031100015FF40F26415C2F2000508F5C0512846BB
:1031200040F81C1F4FF4602104730775C161C0E9AA
:1031300001770461FDF720FD20B1EFF3108072B636
:10314000FEE700BFCDE90A44002405F11C000AA9EE
:103150000C94FDF7B9FB28B1EFF3108072B600BFF5
:10316000FEE700BF40F2E41008F53051C2F2000063
:103170000C234FF4165280E81600C0E90344C0E95E
:103180000534C461FEF7E2FE20B1EFF3108072B6A1
:10319000FEE700BF40F2E41005F10901C2F20000B1
:1031A0000122FEF7BFFF40464FF480710122FDF778
:1031B000D9FF40464FF400710022FDF7D3FF40468F
:1031C00080210022FDF7CEFF687818B100F006F9E3
:1031D00002E000BF00F002F8FEE70000F0B581B0A9
:1031E00040F6004440F26415C4F20104C2F2000546
:1031F0000026FF2720464FF4807101226E70FDF7F4
:10320000B1FF20464FF400710022FDF7ABFF2046CE
:1032100080210022FDF7A6FF2E836E61AF7602F0BB
:103220006FFFA8780F2801D9AE70E3E7DFE800F060
:1032300008101C28323C465084A2925A6470B67A18
:1032400000F0AAFBA878E9790843F9D0C1E000BFF3
:10325000322002F0F9FFE879002840F0BA80A8781F
:103260000128F5D0B5E000BF0A20FDF7A5F9E879FF
:10327000002840F0AE80A8780228F5D0A9E000BF71
:1032800001F000FAE879002840F0A380A87803282C
:10329000F6D09EE004F0B8F9E879002840F0998073
:1032A000A8780428F6D094E005F06AFAE8790028B6
:1032B00040F08F80A8780528F6D08AE004F056FA0E
:1032C000E879002840F08580A8780628F6D080E0CC
:1032D00003F080FFE879002840F07B80A878072879
:1032E000F6D076E003F0EAFFE879002871D1A878FB
:1032F0000B28F7D06DE000BF4FF4FA70FFF77AFCAF
:10330000E879002865D1A8780C28F5D061E000BFE5
:1033100002F092FDE87900285BD1A8780D28F7D05B
:1033200057E000BF6420FFF729FEE879002850D15C
:10333000A8780F28F6D04CE002F022FAE8790028AD
:1033400047D101F0C3FEE879002842D1A8780828C7
:10335000F2D03EE004F0AAF8E879D0BB05F06CF9B1
:10336000E879B0BB05F058FBE87990BBA8780A284B
:10337000F0D02EE001F0F6FAE87950BB01F0ECFB5A
:10338000E87930BB01F0D2FCE87910BB01F0BCFD5C
:10339000E879F0B9A8780928ECD01AE0FFF788FCA2
:1033A000E879B0B9FFF7F0FCE87990B9FFF75CFD78
:1033B000E87970B9FFF758FDE87950B9FFF7E4FCF8
:1033C000E87930B9FFF774FCE87910B9A8780E28CD
:1033D000E4D001B0BDE8F04000F058BE2DE9F04F58
:1033E00081B040F6004B40F26417C4F2010BC2F208
:1033F000000701250026FF2458464FF48071002263
:103400007D70FDF7AFFE58464FF400710122FDF7C5
:10341000A9FE584680210022FDF7A4FE3E837E616E
:10342000BC7602F06DFEF878072801D9FE70E3E75C
:10343000DFE810F00800A40038002E005C008000D7
:10344000EE00500103F084FC58460821FDF784FE8D
:10345000387158461021FDF77FFE787158462021BB
:10346000FDF77AFE3979B871012900F08D827979FA
:10347000012900F08982012800F08682F878F97924
:103480000843DFD001B0BDE8F04F00F0FFBD00BF42
:1034900003F036FBF8790028F4D1F8780328F7D048
:1034A000F0E700BFFFF734FA58460821FDF754FE55
:1034B000387158461021FDF74FFE7871584620218B
:1034C000FDF74AFE3979B871012900F05D827979FA
:1034D000012900F05982012800F05682F87900286D
:1034E000D0D1F8780228DDD0CCE700BF02F01CFF75
:1034F00058460821FDF730FE387158461021FDF777
:103500002BFE787158462021FDF726FE3979B871D7
:10351000012900F039827979012900F035820128EA
:1035200000F03282F8790028ACD1F8780428DDD098
:10353000A8E700BF03F070FB58460821FDF70CFE1A
:10354000387158461021FDF707FE78715846202142
:10355000FDF702FE3979B871012900F015827979F9
:10356000012900F01182012800F00E82F87900286C
:103570007FF488AFF8780528DCD083E740F20008B4
:1035800007F11C05C2F200084FF0FF3900264FF08A
:10359000FF0A00BF2846FDF7D9FB2846FDF770FA61
:1035A000D8F80410386188420AD9A7F81890C7F8EB
:1035B0001490BE7602F0A4FD3220FDF7ABFC05E0CE
:1035C0003E837E6187F81AA002F09AFD58460821D2
:1035D000FDF7C2FD387158461021FDF7BDFD787129
:1035E00058462021FDF7B8FD3979B871012900F05E
:1035F000CB817979012900F0C781012800F0C481CD
:10360000F87900287FF43EAFF8780128C2D039E776
:1036100040F2000647F67E684FF07E3907F11C0540
:10362000C2F200062846A7F81880C7F81490FDF7E4
:103630008DFB2846FDF724FA71683861884201D273
:10364000FF201FE001F10A02904213D901F1280284
:10365000904211D901F1460290420FD901F1640262
:1036600090420DD9823188426FF07C0088BF6FF0A4
:103670007E0007E0BF2005E09F2003E08F2001E0EF
:10368000872000BFB87602F03BFD3220FDF742FCF8
:1036900058460821FDF760FD387158461021FDF7A6
:1036A0005BFD787158462021FDF756FD3979B871D8
:1036B000012900F069817979012900F065810128EB
:1036C00000F06281F87900287FF4DCAEF8780628F3
:1036D000A8D0D7E643F6982843F69929FDF748FD88
:1036E0000546FDF745FD0646281A404526D800BF89
:1036F00002F06EFE58460821FDF72EFD387158463F
:103700001021FDF729FD787158462021FDF724FD91
:103710003979B871012900F037817979012900F0F0
:103720003381012800F03081F87900287FF4AAAEB7
:10373000FDF71EFD0546801B4845D9D3F8790028C2
:103740007FF4A0AE02F0B8FE58460821FDF704FD54
:10375000387158461021FDF7FFFC7871584620213A
:10376000FDF7FAFC3979B871012900F00D817979FA
:10377000012900F00981012800F00681F87900286C
:103780007FF480AEFDF7F4FC0646401B4845D9D3D4
:10379000F87900287FF476AE02F002FF584608213F
:1037A000FDF7DAFC387158461021FDF7D5FC787129
:1037B00058462021FDF7D0FC3979B871012900F075
:1037C000E3807979012900F0DF80012800F0DC80B6
:1037D000F87900287FF456AEFDF7CAFC0546801B39
:1037E0004845D9D3F87900287FF44CAE02F04AFF5F
:1037F00058460821FDF7B0FC387158461021FDF7F6
:10380000ABFC787158462021FDF7A6FC3979B871D8
:10381000012900F0B9807979012900F0B5800128EB
:1038200000F0B280F87900287FF42CAEFDF7A0FC00
:103830000646401B4845D9D3F87900287FF422AECC
:1038400002F092FF58460821FDF786FC3871584671
:103850001021FDF781FC787158462021FDF77CFC92
:103860003979B871012900F08F807979012900F048
:103870008B80012800F08880F87900287FF402AE60
:10388000FDF776FC0546801B4845D9D3F87900281A
:103890007FF4F8AD02F0DCFF58460821FDF75CFC30
:1038A000387158461021FDF757FC78715846202191
:1038B000FDF752FC3979B871012965D07979012970
:1038C00062D0012860D0F87900287FF4DBADFDF7E5
:1038D0004FFC0646401B4845DCD3F87900287FF4AE
:1038E000D1AD03F029F858460821FDF735FC3871B1
:1038F00058461021FDF730FC787158462021FDF71D
:103900002BFC3979B87101293ED0797901293BD056
:10391000012839D0F87900287FF4B4ADFDF728FCF0
:103920000546801B4845DCD3F87900287FF4AAAD12
:1039300003F074F858460821FDF70EFC387158461C
:103940001021FDF709FC787158462021FDF704FC91
:103950003979B871012917D07979012914D0012852
:1039600012D0F87900287FF48DADFDF701FC401BE3
:103970004845DDD3F87900287FF484ADF87807282E
:103980003FF4ACAE7EE500BF0120F87101B0BDE8A8
:10399000F04F00F07BBB000010B541F28830FFF71C
:1039A000EDFA40F26414C2F20004E079002840F01D
:1039B0006583322002F048FCE079002840F05E8305
:1039C0000A20FCF7F9FDE079002840F0578300F069
:1039D00059FEE079002840F0518303F015FEE079AC
:1039E000002840F04B8304F0CBFEE079002840F043
:1039F000458303F0BBFEE079002840F03F8303F0ED
:103A0000E9FBE079002840F0398303F0E3FBE0793B
:103A1000002840F0338303F0DDFBE079002840F01C
:103A20002D8303F0D7FBE079002840F0278303F0D3
:103A3000D1FBE079002840F0218301F0A1FEE0797C
:103A4000002840F01B8301F041FBE079002840F0A2
:103A5000158301F095FEE079002840F00F8301F016
:103A600035FBE079002840F0098301F089FEE07918
:103A7000002840F0038301F029FBE079002840F0A2
:103A8000FD8201F07DFEE079002840F0F78201F030
:103A90001DFBE079002840F0F18201F071FEE07931
:103AA000002840F0EB8201F011FBE079002840F0A3
:103AB000E58201F065FEE079002840F0DF8201F048
:103AC00005FBE079002840F0D98201F059FEE07949
:103AD000002840F0D38201F0F9FAE079002840F0A4
:103AE000CD8201F04DFEE079002840F0C78201F060
:103AF000EDFAE079002840F0C18201F041FEE07962
:103B0000002840F0BB8201F0E1FAE079002840F0A3
:103B1000B58201F035FEE079002840F0AF8201F077
:103B2000D5FAE079002840F0A98200F01BFFE07987
:103B3000002840F0A38201F00FF8E079002840F05F
:103B40009D8201F0F3F8E079002840F0978201F0BF
:103B5000DBF9E079002840F0918200F003FFE07982
:103B6000002840F08B8200F0F7FFE079002840F059
:103B7000858201F0DBF8E079002840F07F8201F0D7
:103B8000C3F9E079002840F0798200F0EBFEE0799B
:103B9000002840F0738200F0DFFFE079002840F059
:103BA0006D8201F0C3F8E079002840F0678201F0EF
:103BB000ABF9E079002840F0618200F0D3FEE079B3
:103BC000002840F05B8200F0C7FFE079002840F059
:103BD000558201F0ABF8E079002840F04F8201F007
:103BE00093F9E079002840F0498200F0BBFEE079CB
:103BF000002840F0438200F0AFFFE079002840F059
:103C00003D8201F093F8E079002840F0378201F01E
:103C10007BF9E079002840F0318200F0A3FEE079E2
:103C2000002840F02B8200F097FFE079002840F058
:103C3000258201F07BF8E079002840F01F8201F036
:103C400063F9E079002840F0198200F08BFEE079FA
:103C5000002840F0138200F07FFFE079002840F058
:103C60000D8201F063F8E079002840F0078201F04E
:103C70004BF9E079002840F0018203F017FCE0796D
:103C8000002840F0FB8104F0D7FCE079002840F0E8
:103C9000F58104F0C1FEE079002840F0EF8103F0E7
:103CA00005FCE079002840F0E98104F0C5FCE079EA
:103CB000002840F0E38104F0AFFEE079002840F0F6
:103CC000DD8103F0F3FBE079002840F0D78104F0B8
:103CD000B3FCE079002840F0D18104F09DFEE0794A
:103CE000002840F0CB8103F0E1FBE079002840F0B0
:103CF000C58104F0A1FCE079002840F0BF8104F008
:103D00008BFEE079002840F0B98103F0CFFBE07929
:103D1000002840F0B38104F08FFCE079002840F0E7
:103D2000AD8104F079FEE079002840F0A78103F02E
:103D3000BDFBE079002840F0A18104F07DFCE07932
:103D4000002840F09B8104F067FEE079002840F0F5
:103D5000958103F0ABFBE079002840F08F8104F0FF
:103D60006BFCE079002840F0898104F055FEE07991
:103D7000002840F0838103F099FBE079002840F0AF
:103D80007D8104F059FCE079002840F0778104F04F
:103D900043FEE079002840F0718103F087FBE07971
:103DA000002840F06B8104F047FCE079002840F0E7
:103DB000658104F031FEE079002840F05F8103F076
:103DC00075FBE079002840F0598104F035FCE0797A
:103DD000002840F0538104F01FFEE079002840F0F5
:103DE0004D8103F06BFAE079002840F047814FF4F1
:103DF000FA70FEF7FFFEE079002840F03F8102F004
:103E00001BF8FEF755FFE079002840F03781FEF7F8
:103E1000BBFFE079002840F03181FFF725F8E07919
:103E2000002840F02B81FFF71FF8E079002840F0D0
:103E30002581FEF7A9FFE079002840F01F81FEF7F9
:103E400037FFE079002840F01981FEF731FFE07973
:103E5000002840F01381FEF797FFE079002840F03A
:103E60000D81FFF701F8E079002840F00781FEF7A7
:103E7000FBFFE079002840F00181FEF785FFE07943
:103E8000002840F0FB80FEF713FFE079002840F0A7
:103E9000F580FEF70DFFE079002840F0EF80FEF797
:103EA00073FFE079002840F0E980FEF7DDFFE0795C
:103EB000002840F0E380FEF7D7FFE079002840F0CB
:103EC000DD80FEF761FFE079002840F0D780FEF743
:103ED000EFFEE079002840F0D180FEF7E9FEE079BE
:103EE000002840F0CB80FEF74FFFE079002840F03B
:103EF000C580FEF7B9FFE079002840F0BF80FEF7EB
:103F0000B3FFE079002840F0B980FEF73DFFE0798B
:103F1000002840F0B380FEF7CBFEE079002840F0A7
:103F2000AD80FEF7C5FEE079002840F0A780FEF7DF
:103F30002BFFE079002840F0A180FEF795FFE079A3
:103F4000002840F09B80FEF78FFFE079002840F0CA
:103F50009580FEF719FFE079002840F08F80FEF78A
:103F6000A7FEE079002840F08980FEF7A1FEE07905
:103F7000002840F08380FEF707FFE07900287DD11C
:103F8000FEF772FFE079002878D1FEF76DFFE07947
:103F9000002873D1FEF7F8FEE07900286ED1FEF715
:103FA00087FEE079002869D1FEF782FEE0790028DB
:103FB00064D1FEF7E9FEE07900285FD1FEF754FFF7
:103FC000E07900285AD1FEF74FFFE079002855D15B
:103FD000FEF7DAFEE079002850D1FEF769FEE079BD
:103FE00000284BD1FEF764FEE079002846D1FEF7A9
:103FF000CBFEE079002841D1FEF736FFE079E8BB3F
:10400000FEF732FFE079C8BBFEF7BEFEE079A8BB41
:10401000FEF74EFEE07988BBFEF74AFEE07968BB0A
:10402000FEF7B2FEE07948BBFEF71EFFE07928BB41
:10403000FEF71AFFE07908BBFEF7A6FEE079E8B9C3
:10404000FEF736FEE079C8B9FEF732FEE079A8B98E
:10405000FEF79AFEE07988B9FEF706FFE07968B9C5
:10406000FEF702FFE07948B9FEF78EFEE0790028FE
:1040700018BF10BDFEF71CFEE07908B110BD00BFEF
:1040800042F21070BDE81040FEF778BF2DE9F04F06
:1040900003AF81B040F26418C2F2000898F84C00F7
:1040A000002800F0BE8140F2E41008F10901C2F2DC
:1040B00000000122FEF736F898F84C00232827D19B
:1040C00008F14C042046FCF7E5F8073020F0070023
:1040D000E946ADEB0005AD462046FCF7DBF80228CB
:1040E000A0F1010605D308F14D0128463246FCF740
:1040F000F0F80020A85588F8070020463221FCF788
:104100006FF92846FEF7C8F8FFF7C0FFCD4688E1F3
:1041100040F200050020C2F2000508F14C0448F608
:104120007E516E7888F80700C0F60001204607220D
:10413000FCF784F8002E00F00781002800F0F880DA
:10414000D8F84C0046F26F61C0F26601884200F078
:10415000EF800FF2504120460622FCF76FF800284E
:1041600000F022810FF2444120460622FCF766F857
:10417000002800F01D810FF23C4120460822FCF788
:104180005DF8002800F01E810FF230412046082221
:10419000FCF754F8002800F01D810FF2284120465A
:1041A0000822FCF74BF8002800F016810FF21C41A2
:1041B00020460822FCF742F8002800F00F810FF299
:1041C000144120460822FCF739F8002800F0088145
:1041D0000FF2084120460822FCF730F8002800F0D2
:1041E00001810FF2004120460822FCF727F8002841
:1041F00000F0FA800FF2F43120460822FCF71EF896
:10420000002800F0F3800FF2EC3120460822082548
:10421000FCF714F8002800F0EB800FF2E0312046A4
:104220000822FCF70BF8002800F0E6800FF2D431EA
:1042300020460922FCF702F8002800F0DF800FF288
:10424000D03120460922FBF7F9FF002800F0D88082
:104250000FF2C83120460922FBF7F0FF002800F0DA
:10426000D1800FF2C43120460922FBF7E7FF002876
:1042700000F0CA800FF2BC3120460922FBF7DEFFB6
:10428000002800F0C3800FF2B83120460922FBF766
:10429000D5FF002800F0BC800FF2B0312046082284
:1042A000FBF7CCFF002800F06B810FF2A83120460D
:1042B0000822FBF7C3FF002800F064810FF29C3155
:1042C00020460822FBF7BAFF002800F05D810FF2BC
:1042D000943120460822FBF7B1FF002800F05681F8
:1042E0000FF2883120460822FBF7A8FF002800F0D3
:1042F0004F810FF2803120460822FBF79FFF0028F4
:1043000000F048810FF2743120460822FBF796FF37
:10431000002800F0418148F67651C0F600012046A1
:104320000822FBF78BFF002840F03A81072034E198
:1043300020463221FCF754F8C820FCF7EBFD0020A2
:10434000687003F075F86CE048B148F68551C0F626
:10435000000120460322FBF771FF002861D12046AF
:104360003221FCF73DF8C820FCF7D4FD40F60044AC
:104370000120C4F20104687020464FF480710122CC
:10438000FCF7F0FE20464FF400710022FCF7EAFE35
:10439000204680210022FCF7E5FE98F80100002865
:1043A0003DD0FFF71BF83CE0002088F8010032E028
:1043B000012088F8010020463221FCF711F8FFF7B0
:1043C0000DF82EE020463221FCF70AF8002088F88C
:1043D000020024E001201CE002201AE0032018E083
:1043E000042016E0052014E0062012E0072010E06B
:1043F00088F802500FE000BF09200AE00A2008E018
:104400000B2006E00C2004E00D2002E00E2000E06E
:104410000F2088F8020020463221FBF7E1FFFEF76B
:10442000DDFE98F80400012820D10024FF2088F840
:10443000044088F80740C8F81440A8F8184088F8E5
:104440001A0001F05DFE4FF4FA70FCF763FD40F2D4
:104450000000C2F20000417800294BD04470A7F15F
:104460000C04A546BDE8F04F02F0E2BF40F20000A8
:1044700098F80510C2F20000407801291AD1C8B19D
:104480000024FF2088F8054088F80740C8F8144049
:10449000A8F8184088F81A0001F032FE4FF4FA70BC
:1044A000FCF738FD98F80100002853D088F8014047
:1044B00042E000BF98F80610012945D1002843D0FA
:1044C00000244FF4FA70A8F80640FCF723FDFF2003
:1044D000A8F81840C8F8144088F81A0001F010FE37
:1044E00098F8010000283FD098F80300013088F8C0
:1044F000030019E040F600440121C4F201044170B8
:1045000020464FF480710122FCF72CFE20464FF428
:1045100000710022FCF726FE204680210022FCF7D5
:1045200021FE98F8010038B1A7F10C04A546BDE8BA
:10453000F04FFEF753BF00BFA7F10C04A546BDE83E
:10454000F04FFEF74BBE00BFA7F10C04A546BDE837
:10455000F08F00BF012088F80100A7F10C04A546E8
:10456000BDE8F04FFEF73ABF98F80200013088F836
:104570000200A7F10C04A546BDE8F04FFEF72EBEE1
:1045800000200AE0012008E0022006E0032004E009
:10459000042002E0052000E0062088F803000AE776
:1045A000FEF7A0F96D6F6465300000006D6F646503
:1045B000310000006D6F6465305F30006D6F6465C1
:1045C000305F31006D6F6465305F32006D6F646520
:1045D000305F33006D6F6465305F34006D6F64650C
:1045E000305F35006D6F6465305F36006D6F6465F8
:1045F000305F37006D6F6465305F38006D6F6465E4
:10460000305F39006D6F6465305F3130000000004D
:104610006D6F6465305F3131000000006D6F64655F
:10462000305F3132000000006D6F6465305F313300
:10463000000000006D6F6465305F313400000000E1
:104640006D6F6465305F3135000000006D6F64652B
:10465000315F30006D6F6465315F31006D6F64658F
:10466000315F32006D6F6465315F33006D6F64657B
:10467000315F34006D6F6465315F35006D6F646567
:10468000315F36002DE9F04F97B040F60048C4F294
:104690000108FBF77BFD4AF6AB25C2F6AA2580FB95
:1046A000051202EBD27101EB4101A0EB410BCDF8F9
:1046B00044B0FBF76BFD80FB051202EBD27101EBFE
:1046C0004101A0EB4109CDF82C90FBF75FFD80FB89
:1046D000051202EBD27101EB4101A0EB410ACDF8CA
:1046E00048A0FBF753FD80FB051202EBD27101EBF2
:1046F0004101A0EB41000A900C90FBF747FD80FBC5
:10470000051202EBD27101EB4101A0EB41071397B7
:10471000FBF73CFD80FB051202EBD27101EB41017E
:10472000A0EB410009900D90FBF730FD80FB0512D6
:1047300002EBD27101EB4101A0EB41061496FBF7AD
:1047400025FD80FB051202EBD27101EB4101A0EBCC
:10475000410004460E90FBF719FD80FB051202EBA9
:10476000D27101EB4101A0EB410003901590FBF7E2
:104770000DFD80FB051202EBD27101EB4101A0EBB4
:10478000410004900F90FBF701FD80FB051202EB46
:10479000D27101EB4101A0EB41001690FBF7F6FC52
:1047A00080FB051202EBD27101EB41015346A0EBF5
:1047B000410040F2641A35463A4649461090C2F22A
:1047C000000A11AE0BAF0020029000BF06A880E8DF
:1047D0000C080998CDE9004505900A9840F20005BB
:1047E0004FF0000B4FF0FF090024C2F20005CDE9A5
:1047F000090100BF5FFA8BF0AB214843800A00EB50
:104800004000ABEB4000C0B22918897B56F820204D
:104810008AF81A10A918097A57F820000AF1140228
:10482000115401F06DFC0120FCF774FBAAF818404C
:10483000CAF814408AF81A9001F062FC4046082138
:10484000FCF78AFC8AF8040040461021FCF784FC3F
:104850008AF8050040462021FCF77EFC9AF80410F7
:104860008AF8060001290FD09AF8051001290BD00B
:10487000012809D09AF8070048B9BBF1230F0BF1C2
:10488000010BB7D303E000BF01208AF807004046C0
:104890000821FCF761FC8AF8040040461021FCF76F
:1048A0005BFC8AF8050040462021FCF755FC9AF88D
:1048B00004108AF8060001294ED09AF80510012943
:1048C0004AD0012848D09AF807000DF114090028B1
:1048D000089899E830023BD10399019E1691CDE9E1
:1048E0001456CDE91209FBF751FC4AF6AB21C2F68A
:1048F000AA2180FB011202EBD27101EB4101A0EB76
:10490000410B0498009F10900998CDF844B00D9089
:104910000A98CDE90E470C90FBF738FC4AF6AB211C
:10492000C2F6AA2180FB011202EBD27101EB410118
:10493000A0EB41010298089B01304A46B0F5AF7FD9
:1049400004970BAF039611AE0B9102907FF43EAF2C
:1049500017B0BDE8F08F00BF01208AF8070017B03C
:10496000BDE8F08F2DE9F04F81B040F6004446F2EB
:10497000676840F264161E25C4F20104C6F2666838
:10498000C2F200060FF2BC194FF0000AFBF7FEFB63
:1049900080FB0812511001EBD27101EB8101A0EBF9
:1049A000010BFBF7F3FB80FB0812511001EBD271F6
:1049B00001EB8101401A5EA151F8200006EB0B07C4
:1049C000B076FBF7E3FB80FB0812511001EBD271CC
:1049D00001EB8101401A19F820007875387501F053
:1049E0008FFB3220FCF796FA20460821FCF7B4FB37
:1049F000307120461021FCF7AFFB7071204620215A
:104A0000FCF7AAFB3179B071012900F08B80717934
:104A1000012900F08780012800F08480F0790028C7
:104A20007CD13220FCF776FA20460821FCF794FB73
:104A3000307120461021FCF78FFB70712046202139
:104A4000FCF78AFB3179B07101296BD071790129AA
:104A500068D0012866D0F07900285FD13220FCF7B9
:104A600059FA20460821FCF777FB307120461021C7
:104A7000FCF772FB707120462021FCF76DFB317949
:104A8000B07101294ED0717901294BD0012849D04C
:104A9000F079002842D13220FCF73CFA2046082168
:104AA000FCF75AFB307120461021FCF755FB707162
:104AB00020462021FCF750FB3179B071012931D01B
:104AC000717901292ED001282CD0F07930BB322009
:104AD000FCF720FA20460821FCF73EFB3071204607
:104AE0001021FCF739FB707120462021FCF734FBC4
:104AF0003179B071012915D07179012912D00128BD
:104B000010D0F07950B9FF20A6F818A0C6F814A06C
:104B1000B07601F0F5FA013D7FF438AF01B0BDE8A1
:104B2000F08F00BF0120F07101B0BDE8F08F00BF31
:104B30009F000000CF000000E7000000F30000002D
:104B4000F9000000600000003000000018000000C4
:104B50000C000000060000002DE9F04F81B040F687
:104B6000004440F264161E25C4F201040FF29C18A2
:104B7000C2F200060FF2A4194FF0000B4FF0FF0A2B
:104B8000FBF704FBC11700EB917121F00301471AF9
:104B9000FBF7FCFAC11700EB917121F00301401AF9
:104BA00058F820003744B076FBF7F0FAC11700EB55
:104BB000917121F00301401A19F82000B875787539
:104BC000387501F09DFA20460821FCF7C5FA3071CE
:104BD00020461021FCF7C0FA707120462021FCF716
:104BE000BBFA3179B071012900F08A80717901290D
:104BF00000F08680012800F08380F07900287CD1C5
:104C00003220FCF787F920460821FCF7A5FA30711D
:104C100020461021FCF7A0FA707120462021FCF7F5
:104C20009BFA3179B07101296AD07179012967D075
:104C3000012865D0F07900285FD13220FCF76AF9AD
:104C400020460821FCF788FA307120461021FCF735
:104C500083FA707120462021FCF77EFA3179B07119
:104C600001294DD0717901294AD0012848D0F07925
:104C7000002842D13220FCF74DF920460821FCF7EC
:104C80006BFA307120461021FCF766FA70712046ED
:104C90002021FCF761FA3179B071012930D07179A6
:104CA00001292DD001282BD0F07930BB3220FCF720
:104CB00031F920460821FCF74FFA307120461021C7
:104CC000FCF74AFA707120462021FCF745FA317949
:104CD000B071012914D07179012911D001280FD0A8
:104CE000F07950B9A6F818B0C6F814B086F81AA032
:104CF00001F006FA013D7FF443AF01B0BDE8F08F4B
:104D00000120F07101B0BDE8F08F00BF8F000000FE
:104D1000C7000000E3000000F10000007000000088
:104D2000380000001C0000000E0000002DE9F04FCC
:104D300081B040F6004445F2565840F264161E25F4
:104D4000C4F20104C5F25558C2F200060FF2AC19C4
:104D50004FF0000AFBF71AFA80FB081202EBD2713F
:104D600001EB4101A0EB010BFBF710FA80FB0812ED
:104D700002EBD27101EB4101401A5DA151F8200014
:104D800006EB0B07B076FBF701FA80FB081202EB8B
:104D9000D27101EB4101401A19F82000F875B8757D
:104DA0007875387501F0ACF920460821FCF7D4F984
:104DB000307120461021FCF7CFF970712046202178
:104DC000FCF7CAF93179B071012900F08B80717953
:104DD000012900F08780012800F08480F079002804
:104DE0007CD13220FCF796F820460821FCF7B4F974
:104DF000307120461021FCF7AFF970712046202158
:104E0000FCF7AAF93179B07101296BD071790129C8
:104E100068D0012866D0F07900285FD13220FCF7F5
:104E200079F820460821FCF797F9307120461021C7
:104E3000FCF792F9707120462021FCF78DF9317949
:104E4000B07101294ED0717901294BD0012849D088
:104E5000F079002842D13220FCF75CF82046082186
:104E6000FCF77AF9307120461021FCF775F9707162
:104E700020462021FCF770F93179B071012931D039
:104E8000717901292ED001282CD0F07930BB322045
:104E9000FCF740F820460821FCF75EF93071204607
:104EA0001021FCF759F9707120462021FCF754F9C4
:104EB0003179B071012915D07179012912D00128F9
:104EC00010D0F07950B9FF20A6F818A0C6F814A0A9
:104ED000B07601F015F9013D7FF43CAF01B0BDE8BB
:104EE000F08F00BF0120F07101B0BDE8F08F00BF6E
:104EF00087000000C3000000E1000000780000000F
:104F00003C0000001E0000002DE9F04F81B040F68B
:104F1000004440F264161E25C4F201040FF29C18EE
:104F2000C2F200060FF29C194FF0000B4FF0FF0A7F
:104F3000FBF72CF900EBD07121F00101471AFBF7C8
:104F400025F900EBD07121F00101401A58F820003A
:104F50003744B076FBF71AF900EBD07121F001016C
:104F6000401A19F820003876F875B87578753875D4
:104F700001F0C6F820460821FCF7EEF83071204613
:104F80001021FCF7E9F8707120462021FCF7E4F8C5
:104F90003179B071012900F08B807179012900F01D
:104FA0008780012800F08480F07900287CD13220AD
:104FB000FBF7B0FF20460821FCF7CEF83071204601
:104FC0001021FCF7C9F8707120462021FCF7C4F8C5
:104FD0003179B07101296BD07179012968D001282C
:104FE00066D0F07900285FD13220FBF793FF20468E
:104FF0000821FCF7B1F8307120461021FCF7ACF81D
:10500000707120462021FCF7A7F83179B071012991
:105010004ED0717901294BD0012849D0F079002870
:1050200042D13220FBF776FF20460821FCF794F8A6
:10503000307120461021FCF78FF870712046202136
:10504000FCF78AF83179B071012931D071790129E1
:105050002ED001282CD0F07930BB3220FBF75AFF3C
:1050600020460821FCF778F8307120461021FCF723
:1050700073F8707120462021FCF76EF83179B07119
:10508000012915D07179012912D0012810D0F079A9
:1050900050B9A6F818B0C6F814B086F81AA001F0F6
:1050A0002FF8013D7FF444AF01B0BDE8F08F00BFA1
:1050B0000120F07101B0BDE8F08F00BF8300000057
:1050C000C10000007C0000003E0000002DE9F04F10
:1050D000ADF57F7DF6A82421FF22FBF779F90020AA
:1050E0006FF08F0C0DF1780A0AEB0C0E0AEB8002C0
:1050F000C51C041DCEF89000411D831DC2E9035458
:1051000002F11404471C861C00F1070800F108098D
:1051100084E80A0300F1090100F10A0302F1240BFB
:10512000C2E9017600F10B0400F10C0500F10D0657
:1051300000F10E0700F10F0800F110098BE8FA03E7
:1051400000F1110100F1120302F1440B00F113040C
:1051500000F1140500F1150600F1160700F117081B
:1051600000F118098BE8FA0300F1190100F11A03A4
:1051700002F1640B00F11B0400F11C0500F11D0697
:1051800000F11E0700F11F0800F120098BE8FA0367
:1051900000F1210100F12203C2E9211300F12301F2
:1051A00000F12403CEE9471300F1250100F12603A5
:1051B00000F1270702F1940900F1280600F1290502
:1051C00000F12A0400F12B0E00F12C0889E88A0076
:1051D00000F12D0100F12E0300F12F0702F1B409B7
:1051E000C2E92865C2E92A4EC2F8B08000F1300653
:1051F00000F1310500F1320400F1330E00F1340802
:1052000089E88A0000F1350100F1360300F1370723
:1052100002F1D409C2E93065C2E9324EC2F8D08049
:1052200000F1380600F1390500F13A0400F13B0EB7
:1052300000F13C0889E88A0000F13D0100F13E03DD
:1052400000F13F0702F1F409C2E93865C2E93A4EBC
:10525000C2F8F08000F1400600F1410500F142047F
:1052600000F1430E00F1440889E88A0000F145018D
:1052700000F1460300F147074830C2E94065C2E942
:10528000424EC2F8108102F58A72D8280CF5907C43
:105290008AC27FF429AF0024D82500BFFAF776FF31
:1052A00090FBF5F15AF8242001FB1500013D204444
:1052B0005AF820104AF8241004F101044AF820207A
:1052C000ECD140F2641540F2000A4FF00009C2F23E
:1052D0000005C2F2000A4FF0FF0B4FF0000800BFBC
:1052E0001EA850F828004AF6AB21C2F6AA2180FB7E
:1052F000011202EBD271A1EB810300EB4300F6AE89
:105300000130735C01272A7807FA00F043EA0007AE
:10531000002A08BF23EA000777549DF8DE039DF8B2
:10532000D8230C909DF8DF039DF8D9330B909DF89E
:10533000E0039DF8DA630A909DF8E1039DF8DB73C2
:1053400008909DF8E2039DF8DCC309909DF8E40302
:105350009DF8DD4313909DF8E5039DF8E613129048
:105360009AF80E000791A8769DF8E703049206903C
:105370009DF8E8032A7505909DF8EA0303930D90C4
:105380009DF8EB036B750E909DF8EC0302960F9061
:105390009DF8ED03AE7510909DF8EE030197119006
:1053A0009DF8F003EF7514909DF8F1036746159092
:1053B0009DF8F20385F818C016909DF8F3036C76FB
:1053C00017909DF8F40318909DF8F60319909DF836
:1053D000F7031A909DF8F8031B909DF8F9031C90B1
:1053E0009DF8FA031D9000F08BFE0020FBF792FD64
:1053F000FBF7BEFE064600BFFBF7BAFEB042FBD08D
:10540000A5F81890C5F8149085F81AB000F078FE49
:105410009AF80F000999A8760C98297628750B98A8
:1054200068750A98A8750898E8759DF8E30368768A
:1054300000F066FE0020FBF76DFDFBF799FE0646C7
:10544000FBF796FEB042FBD0A5F81890C5F8149073
:1054500085F81AB000F054FE9AF810000599A87665
:10546000139829762875129868750798A875069874
:10547000E8759DF8E903687600F042FE0020FBF72E
:1054800049FDFBF775FE0646FBF772FEB042FBD006
:10549000A5F81890C5F8149085F81AB000F030FE01
:1054A0009AF811001199A8760D98297628750E980A
:1054B00068750F98A8751098E8759DF8EF036876E1
:1054C00000F01EFE0020FBF725FDFBF751FE06460F
:1054D000FBF74EFEB042FBD0A5F81890C5F814902B
:1054E00085F81AB000F00CFE9AF812001899A87608
:1054F000149829762875159868751698A8751798C0
:10550000E8759DF8F503687600F0FAFD0020FBF7DA
:1055100001FDFBF72DFE0646FBF72AFEB042FBD04D
:10552000A5F81890C5F8149085F81AB000F0E8FDB9
:105530009AF813001D99A8761998297628751A9853
:1055400068751B98A8751C98E8759DF8FB0368762C
:1055500000F0D6FD0020FBF7DDFCFBF709FE064658
:10556000FBF706FEB042FBD0A5F81890C5F81490E2
:1055700085F81AB000F0C4FD9AF80E002F76A876D0
:1055800004986C762875039868750298A875019838
:10559000E87500F0B5FD0020FBF7BCFCFBF7E8FD6B
:1055A000064600BFFBF7E4FDB042FBD0A5F818901B
:1055B000C5F8149085F81AB000F0A2FD9AF80F0013
:1055C0000999A8760C98297628750B9868750A9819
:1055D000A8750898E8759DF8E303687600F090FDDB
:1055E0000020FBF797FCFBF7C3FD0646FBF7C0FD69
:1055F000B042FBD0A5F81890C5F8149085F81AB001
:1056000000F07EFD9AF810000599A8761398297687
:105610002875129868750798A8750698E8759DF81A
:10562000E903687600F06CFD0020FBF773FCFBF7E4
:105630009FFD0646FBF79CFDB042FBD0A5F81890F5
:10564000C5F8149085F81AB000F05AFD9AF81100C8
:105650001199A8760D98297628750E9868750F9877
:10566000A8751098E8759DF8EF03687600F048FD7E
:105670000020FBF74FFCFBF77BFD0646FBF778FDB0
:10568000B042FBD0A5F81890C5F8149085F81AB070
:1056900000F036FD9AF812001899A8761498297629
:1056A0002875159868751698A8751798E8759DF867
:1056B000F503687600F024FD0020FBF72BFCFBF7D8
:1056C00057FD0646FBF754FDB042FBD0A5F81890F5
:1056D000C5F8149085F81AB000F012FD9AF813007E
:1056E0001D99A8761998297628751A9868751B98B7
:1056F000A8751C98E8759DF8FB03687600F000FD1E
:105700000020FBF707FCFBF733FD0646FBF730FDF7
:10571000B042FBD0A5F81890C5F8149085F81AB0DF
:1057200000F0EEFC40F60046C4F2010630460821C7
:10573000FBF712FD287130461021FBF70DFD687153
:1057400030462021FBF708FD2979A871012911D0E5
:10575000697901290ED001280CD0E87928B908F11F
:105760000108B8F1D80F7FF4BBAD0DF57F7DBDE822
:10577000F08F00BF0120E8710DF57F7DBDE8F08F4F
:105780002DE9F04FADF57F7D1EA82421FAF728FE04
:1057900000206FF08F0C0DF19C0B00BF0BEB0C0E7B
:1057A0000BEB8002C51C041DCEF89000411D831D2B
:1057B000C2E9035402F11404471C861C00F10708D7
:1057C00000F1080984E80A0300F1090100F10A0365
:1057D00002F1240AC2E9017600F10B0400F10C0584
:1057E00000F10D0600F10E0700F10F0800F110099D
:1057F0008AE8FA0300F1110100F1120302F1440AF0
:1058000000F1130400F1140500F1150600F116076C
:1058100000F1170800F118098AE8FA0300F11901EC
:1058200000F11A0302F1640A00F11B0400F11C05E7
:1058300000F11D0600F11E0700F11F0800F120090C
:105840008AE8FA0300F1210100F12203C2E92113E1
:1058500000F1230100F12403CEE9471300F12501F3
:1058600000F1260300F1270702F1940900F1280650
:1058700000F1290500F12A0400F12B0E00F12C089B
:1058800089E88A0000F12D0100F12E0300F12F07B5
:1058900002F1B409C2E92865C2E92A4EC2F8B08013
:1058A00000F1300600F1310500F1320400F1330E51
:1058B00000F1340889E88A0000F1350100F136036F
:1058C00000F1370702F1D409C2E93065C2E9324E6E
:1058D000C2F8D08000F1380600F1390500F13A0431
:1058E00000F13B0E00F13C0889E88A0000F13D011F
:1058F00000F13E0300F13F0702F1F409C2E9386507
:10590000C2E93A4EC2F8F08000F1400600F14105CC
:1059100000F1420400F1430E00F1440889E88A00D6
:1059200000F1450100F1460300F147074830C2E9A4
:105930004065C2E9424EC2F8108102F58A72D82849
:105940000CF5907C8AC27FF429AF41F2F725002440
:10595000C4F6DA35D82600BFFAF718FC80FB05122A
:10596000911101EBD27101FB16005BF824205BF86A
:1059700020104BF824100134D82C4BF82020EBD108
:1059800040F2000440F264154FF00009C2F2000436
:10599000C2F200054FF0FF0A4FF000085BF8280044
:1059A0004AF6AB21C2F6AA2180FB011202EBD271AA
:1059B000A1EB81021EAB00EB42005A5C012707FA03
:1059C00000F0104358549DF87E0021460C909DF83D
:1059D0007F009DF878200B909DF880009DF879302D
:1059E0000A909DF881009DF87A6008909DF88200E9
:1059F0009DF87B7009909DF884009DF87CC0139001
:105A00009DF885009DF87D401290887B8B46A87696
:105A10009DF887009DF8861006909DF888000791F4
:105A200005909DF88A0004920D909DF88B002A75D0
:105A30000E909DF88C0003930F909DF88D006B7570
:105A400010909DF88E00029611909DF89000AE7512
:105A500014909DF89100019715909DF89200EF75B4
:105A600016909DF89300674617909DF8940085F86E
:105A700018C018909DF89600009419909DF8970012
:105A80006C761A909DF898001B909DF899001C90D8
:105A90009DF89A001D9000F033FB0020FBF73AFAC6
:105AA000FBF766FB064600BFFBF762FBB042FBD08C
:105AB000A5F81890C5F8149085F81AA000F020FBFE
:105AC0009BF80F000999A8760C985C4628750B98EE
:105AD000297668750A98A8750898E8759DF8830076
